BTR520006400000142290856656TRY150120180830MODTÜ Gön.ve Em.Der.      000045115499006İşçi Blokları Mah. 1513. sok. Merkez Sitesi E Blok 1/B 100.Yıl-Çankaya                                                                                                                                  
D042290362391                          000000000048.00Abdullah Sezgin          Dernek aidatı                 46369642864CKamu Görevlisi                                    10012018
D042291005197                          000000000048.00Abdullah Yerlikaya       Dernek aidatı                 11161277972CKamu Görevlisi                                    10012018
D042291125522                          000000000048.00Adila Durusoy            Dernek aidatı                 23923446632CKamu Görevlisi                                    10012018
D042291144282                          000000000048.00Ahmet Turan Aluç         Dernek aidatı                 21977073040CKamu Görevlisi                                    10012018
D042290668870                          000000000048.00Ahmet Yıldırım           Dernek aidatı                 28193156410CKamu Görevlisi                                    10012018
D042290400623                          000000000048.00Ali Doğanaksoy           Dernek aidatı                 12508030908CKamu Görevlisi                                    10012018
D042290002585                          000000000048.00Ali Gökmen               Dernek aidatı                 12109034886CKamu Görevlisi                                    10012018
D042290348364                          000000000048.00Ali Şahin                Dernek aidatı                 60160110162CKamu Görevlisi                                    10012018
D042291125017                          000000000048.00Altun Kaya               Dernek aidatı                 26653323594CKamu Görevlisi                                    10012018
D042290608084                          000000000048.00Aslıhan Geçit Gökırmak   Dernek aidatı                 14554138720CKamu Görevlisi                                    10012018
D042290004547                          000000000048.00Atalay Karasu            Dernek aidatı                 14821030672CKamu Görevlisi                                    10012018
D042290574941                          000000000048.00Avni Bal                 Dernek aidatı                 36736897256CKamu Görevlisi                                    10012018
D042290704547                          000000000048.00Ayberk Koç               Dernek aidatı                 35965679404CKamu Görevlisi                                    10012018
D042290479061                          000000000048.00Ayçe İdil Aba            Dernek aidatı                 33721367732CKamu Görevlisi                                    10012018
D042290310995                          000000000048.00Ayfer Bayram             Dernek aidatı                 10204300820CKamu Görevlisi                                    10012018
D042290217434                          000000000048.00Aysel Dayan Özcan        Dernek aidatı                 26740713000CKamu Görevlisi                                    10012018
D042290418551                          000000000048.00Aysun Üstünel Uğurtay    Dernek aidatı                 13184747814CKamu Görevlisi                                    10012018
D042290574734                          000000000048.00Ayşe Ceylan Tokluoğlu    Dernek aidatı                 10724650702CKamu Görevlisi                                    10012018
D042291091876                          000000000048.00Ayşe Fındık              Dernek aidatı                 36259154454CKamu Görevlisi                                    10012018
D042290125469                          000000000048.00Ayşe İnci Gürkanlar      Dernek aidatı                 11938125932CKamu Görevlisi                                    10012018
D042290517397                          000000000048.00Ayşe Nursal Aydıncılar   Dernek aidatı                 23944930936CKamu Görevlisi                                    10012018
D042290889129                          000000000048.00Ayşegül Özkan            Dernek aidatı                 22610018886CKamu Görevlisi                                    10012018
D042290400903                          000000000048.00Ayşem Şebnem Karadağ     Dernek aidatı                 28402783048CKamu Görevlisi                                    10012018
D042290604483                          000000000048.00Ayşenur Akpınar Gönenç   Dernek aidatı                 30916906004CKamu Görevlisi                                    10012018
D042290978474                          000000000048.00Bahar Başkal             Dernek aidatı                 38290123154CKamu Görevlisi                                    10012018
D042290703880                          000000000048.00Bahar Şengün             Dernek aidatı                 43876238450CKamu Görevlisi                                    10012018
D042291005566                          000000000048.00Bahar Tipioğlu Şahinler  Dernek aidatı                 25099449080CKamu Görevlisi                                    10012018
D042290521384                          000000000048.00Banu Acartürk            Dernek aidatı                 34954204214CKamu Görevlisi                                    10012018
D042290222619                          000000000048.00Bekir Fevzi Eke          Dernek aidatı                 10543167726CKamu Görevlisi                                    10012018
D042290873878                          000000000048.00Belgin Turan             Dernek aidatı                 24274268140CKamu Görevlisi                                    10012018
D042290622017                          000000000048.00Berna Burçak Başbuğ ErkanDernek aidatı                 24443600788CKamu Görevlisi                                    10012018
D042290485066                          000000000048.00Birsen Özkan Ünlü        Dernek aidatı                 15268103332CKamu Görevlisi                                    10012018
D042290576581                          000000000048.00Birsen Pir               Dernek aidatı                 18793014890CKamu Görevlisi                                    10012018
D042290177939                          000000000048.00Birten Çelik             Dernek aidatı                 22036498880CKamu Görevlisi                                    10012018
D042290664747                          000000000048.00Buket Avşar              Dernek aidatı                 15605991882CKamu Görevlisi                                    10012018
D042290839941                          000000000048.00Buket Esra Tarakçıoğlu   Dernek aidatı                 30910410200CKamu Görevlisi                                    10012018
D042291091757                          000000000048.00Buket Yeniyol            Dernek aidatı                 13462236108CKamu Görevlisi                                    10012018
D042290985668                          000000000048.00Burcu Demiralay Yayla    Dernek aidatı                 60739054262CKamu Görevlisi                                    10012018
D042290940840                          000000000048.00Bülent İşcanoğlu         Dernek aidatı                 10030095716CKamu Görevlisi                                    10012018
D042290607115                          000000000048.00Canset Karaerkek         Dernek aidatı                 52969049958CKamu Görevlisi                                    10012018
D042290361022                          000000000048.00Cantürk Göllü            Dernek aidatı                 29455983072CKamu Görevlisi                                    10012018
D042290754626                          000000000048.00Cemalettin Ayyıldız      Dernek aidatı                 31333428940CKamu Görevlisi                                    10012018
D042290256518                          000000000048.00Cemile Özer Perçin       Dernek aidatı                 36046986732CKamu Görevlisi                                    10012018
D042290438750                          000000000048.00Cengiz Acartürk          Dernek aidatı                 18107829196CKamu Görevlisi                                    10012018
D042290380414                          000000000048.00Ceylan Yozgatlıgil       Dernek aidatı                 20384323342CKamu Görevlisi                                    10012018
D042290360969                          000000000048.00Davut Yıldız             Dernek aidatı                 29662379194CKamu Görevlisi                                    10012018
D042290406914                          000000000048.00Dilek Çınar              Dernek aidatı                 52069069412CKamu Görevlisi                                    10012018
D042290151778                          000000000048.00E. Ayşe Karasu           Dernek aidatı                 14818030746CKamu Görevlisi                                    10012018
D042291014995                          000000000048.00Ebru Pehlivanoğlu        Dernek aidatı                 29975452058CKamu Görevlisi                                    10012018
D042291014995                          000000000048.00Ebru Pehlivanoğlu        Dernek aidatı                 29975452058CKamu Görevlisi                                    10012018
D042290889180                          000000000048.00Eda Durkan               Dernek aidatı                 56866032006CKamu Görevlisi                                    10012018
D042380278219                          000000000048.00Elif Özgüvenç            Dernek aidatı                 24061366806CKamu Görevlisi                                    10012018
D042290609021                          000000000048.00Emine Yılmaz             Dernek aidatı                 15019016294CKamu Görevlisi                                    10012018
D042290225213                          000000000048.00Erdal Çokça              Dernek aidatı                 18446166242CKamu Görevlisi                                    10012018
D042290407246                          000000000048.00Erdem Canbay             Dernek aidatı                 34631199208CKamu Görevlisi                                    10012018
D042290271201                          000000000048.00Erdin Bozkurt            Dernek aidatı                 11494144064CKamu Görevlisi                                    10012018
D042290758215                          000000000048.00Esra Akgül               Dernek aidatı                 20090456006CKamu Görevlisi                                    10012018
D042290666547                          000000000048.00Fahrettin Cengiz         Dernek aidatı                 45481454904CKamu Görevlisi                                    10012018
D042290255035                          000000000048.00Fahriye Yılmaz           Dernek aidatı                 34891081442CKamu Görevlisi                                    10012018
D042290331274                          000000000048.00Fatma Ateş               Dernek aidatı                 56227479068CKamu Görevlisi                                    10012018
D042290471942                          000000000048.00Fatma Gürcan Ergun       Dernek aidatı                 30809030014CKamu Görevlisi                                    10012018
D042290530749                          000000000048.00Fatma İrem Toker         Dernek aidatı                 13897057910CKamu Görevlisi                                    10012018
D042290889087                          000000000048.00Fatma  Vatanlar          Dernek aidatı                 36265788858CKamu Görevlisi                                    10012018
D042290410013                          000000000048.00Fatma Kılıç              Dernek aidatı                 11753969292CKamu Görevlisi                                    10012018
D042290336209                          000000000048.00Fatma Serap Özer Ertek   Dernek aidatı                 29206290718CKamu Görevlisi                                    10012018
D042290406443                          000000000048.00Feramuz Atak             Dernek aidatı                 43756902624CKamu Görevlisi                                    10012018
D042290531954                          000000000048.00Filiz İnalöz             Dernek aidatı                 39103405948CKamu Görevlisi                                    10012018
D042290886244                          000000000048.00Füsun Şahin              Dernek aidatı                 22834853072CKamu Görevlisi                                    10012018
D042290484472                          000000000048.00Gülay Doğan              Dernek aidatı                 39827034196CKamu Görevlisi                                    10012018
D042290300109                          000000000048.00Gülizar Bozkurt Budak    Dernek aidatı                 38146691592CKamu Görevlisi                                    10012018
D042290707936                          000000000048.00Gülizar Demirtaş Uysal   Dernek aidatı                 28090194430CKamu Görevlisi                                    10012018
D042290940689                          000000000048.00Güllü Taşkıran           Dernek aidatı                 10306341356CKamu Görevlisi                                    10012018
D042290108486                          000000000048.00Gülsüm Aygün             Dernek aidatı                 11600873062CKamu Görevlisi                                    10012018
D042290222888                          000000000048.00Gülsüm Uğurlu Gür        Dernek aidatı                 19651712484CKamu Görevlisi                                    10012018
D042290150545                          000000000048.00Habip Genç               Dernek aidatı                 13408521442CKamu Görevlisi                                    10012018
D042290875120                          000000000048.00Hale Altınova            Dernek aidatı                 16070195942CKamu Görevlisi                                    10012018
D042290225018                          000000000048.00Halil Şahin              Dernek aidatı                 37964084494CKamu Görevlisi                                    10012018
D042290220554                          000000000048.00Haluk Ağırmatlıoğlu      Dernek aidatı                 10948153898CKamu Görevlisi                                    10012018
D042290004799                          000000000048.00Haluk Pamir              Dernek aidatı                 54718091218CKamu Görevlisi                                    10012018
D042290220865                          000000000048.00Hasan Ali Sevgi          Dernek aidatı                 46591796816CKamu Görevlisi                                    10012018
D042290793036                          000000000048.00Hasan Yazıcı             Dernek aidatı                 66832133484CKamu Görevlisi                                    10012018
D042290259440                          000000000048.00Haydar Şahin             Dernek aidatı                 31561327558CKamu Görevlisi                                    10012018
D042290379273                          000000000048.00Hayriye Ayhan Şeherli    Dernek aidatı                 40381024394CKamu Görevlisi                                    10012018
D042290518884                          000000000048.00Hikmet Esin Erdem        Dernek aidatı                 33490148068CKamu Görevlisi                                    10012018
D066230565387                          000000000048.00Hurşit Kip               Dernek aidatı                 26584968772CKamu Görevlisi                                    10012018
D042291003990                          000000000048.00Hülya Bağçe Yıldız       Dernek aidatı                 28711402128CKamu Görevlisi                                    10012018
D042290375446                          000000000048.00Hüseyin Aydoğdu          Dernek aidatı                 11674244942CKamu Görevlisi                                    10012018
D042290523878                          000000000048.00Hüsnü Göksal Cülcüloğlu  Dernek aidatı                 17282788250CKamu Görevlisi                                    10012018
D042290197342                          000000000048.00Hüsnü Yıldız             Dernek aidatı                 11992061122CKamu Görevlisi                                    10012018
D042290976612                          000000000048.00İbrahim Ceyhun Koçak     Dernek aidatı                 62371453090CKamu Görevlisi                                    10012018
D042290471658                          000000000048.00İbrahim Kurnaz           Dernek aidatı                 40333908178CKamu Görevlisi                                    10012018
D042290484322                          000000000048.00İlhan Sepin              Dernek aidatı                 22240892368CKamu Görevlisi                                    10012018
D042290002585                          000000000048.00İnci Gülser Gökmen       Dernek aidatı                 12091035472CKamu Görevlisi                                    10012018
D042291035669                          000000000048.00Kamil Daşgın             Dernek aidatı                 10124041902CKamu Görevlisi                                    10012018
D042290203346                          000000000048.00Kemal Gülcen             Dernek aidatı                 10668087770CKamu Görevlisi                                    10012018
D042290370212                          000000000048.00Kutlu Kösterit           Dernek aidatı                 36572247062CKamu Görevlisi                                    10012018
D042290710350                          000000000048.00Leyla İpek               Dernek aidatı                 59503503730CKamu Görevlisi                                    10012018
D042290333355                          000000000048.00Leyla Kaya               Dernek aidatı                 33319287770CKamu Görevlisi                                    10012018
D042290370552                          000000000048.00Leyla Şahin              Dernek aidatı                 17713789160CKamu Görevlisi                                    10012018
D042290801862                          000000000048.00Mehmet Değirmenci        Dernek aidatı                 17861760028CKamu Görevlisi                                    10012018
D042290476836                          000000000048.00Mehmet Özeren            Dernek aidatı                 30119162160CKamu Görevlisi                                    10012018
D042290074234                          000000000048.00Mehmet Zülfü Aşık        Dernek aidatı                 24254111572CKamu Görevlisi                                    10012018
D042290607987                          000000000048.00Mehtap Kaynaş Erdağı     Dernek aidatı                 22885646944CKamu Görevlisi                                    10012018
D042291292961                          000000000048.00Mehtap Sertkaya          Dernek aidatı                 28045032992CKamu Görevlisi                                    10012018
D042290480232                          000000000048.00Melek Yazıcıoğlu         Dernek aidatı                 14839884724CKamu Görevlisi                                    10012018
D042290406991                          000000000048.00Melih Sezgin             Dernek aidatı                 16153074478CKamu Görevlisi                                    10012018
D042290003978                          000000000048.00Meliha Benli Altunışık   Dernek aidatı                 42358599690CKamu Görevlisi                                    10012018
D042290574512                          000000000048.00Metin Bayar              Dernek aidatı                 14485154776CKamu Görevlisi                                    10012018
D042290220702                          000000000048.00Mikail Yılmaz            Dernek aidatı                 26728180510CKamu Görevlisi                                    10012018
D042290485554                          000000000048.00Mukaddes Kocakaya        Dernek aidatı                 18941718076CKamu Görevlisi                                    10012018
D042290311458                          000000000048.00Mustafa Levent İnce      Dernek aidatı                 45472733544CKamu Görevlisi                                    10012018
D042290251403                          000000000048.00Muteber Gökırmak         Dernek aidatı                 11192024910CKamu Görevlisi                                    10012018
D042290623462                          000000000048.00Muzaffer Karaman         Dernek aidatı                 35488327998CKamu Görevlisi                                    10012018
D042290363739                          000000000048.00Müslim Cabadağ           Dernek aidatı                 10693284632CKamu Görevlisi                                    10012018
D042290281744                          000000000048.00Müveyla Kolbaşı Özarı    Dernek aidatı                 14422037520CKamu Görevlisi                                    10012018
D042290275038                          000000000048.00Naciye Kaya Pekkaynak    Dernek aidatı                 43120824880CKamu Görevlisi                                    10012018
D042290363075                          000000000048.00Nalan Pekkaynak          Dernek aidatı                 11095066536CKamu Görevlisi                                    10012018
D042290788437                          000000000048.00Nazan Ağırmatlıoğlu      Dernek aidatı                 10945153952CKamu Görevlisi                                    10012018
D042290345892                          000000000048.00Necati Alan              Dernek aidatı                 48367839390CKamu Görevlisi                                    10012018
D042290398266                          000000000048.00Necmettin Kapucu         Dernek aidatı                 25471395646CKamu Görevlisi                                    10012018
D042290398266                          000000000048.00Necmettin Kapucu         Dernek aidatı                 25471395646CKamu Görevlisi                                    10012018
D042290232128                          000000000048.00Necmettin Saral          Dernek aidatı                 26645510582CKamu Görevlisi                                    10012018
D042290310047                          000000000048.00Necmiye Erdem Benli      Dernek aidatı                 32129375158CKamu Görevlisi                                    10012018
D042280445554                          000000000048.00Negah Handan Uçar GürelikDernek aidatı                 51022095284CKamu Görevlisi                                    10012018
D042290379048                          000000000048.00Nejla Erdoğdu İpek       Dernek aidatı                 52006237386CKamu Görevlisi                                    10012018
D042290860763                          000000000048.00Nesrin Bağ               Dernek aidatı                 13936061830CKamu Görevlisi                                    10012018
D042290323952                          000000000048.00Neşe Kara Aydoğan        Dernek aidatı                 12067238166CKamu Görevlisi                                    10012018
D042290301021                          000000000048.00Neşide Öncül             Dernek aidatı                 53662464994CKamu Görevlisi                                    10012018
D042290433867                          000000000048.00Nevide Biçer             Dernek aidatı                 14005052872CKamu Görevlisi                                    10012018
D042470352404                          000000000048.00Nevin Aksüyek Yıldırıcı  Dernek aidatı                 27485335120CKamu Görevlisi                                    10012018
D042290608037                          000000000048.00Nihat Yakar              Dernek aidatı                 14419038998CKamu Görevlisi                                    10012018
D042290227027                          000000000048.00Nihayet Seyhan           Dernek aidatı                 11521255732CKamu Görevlisi                                    10012018
D042290233599                          000000000048.00Nilgün Kaplan            Dernek aidatı                 67732196012CKamu Görevlisi                                    10012018
D042290231414                          000000000048.00Nizamettin Yıldız        Dernek aidatı                 13018017304CKamu Görevlisi                                    10012018
D042290362106                          000000000048.00Nurcan Altınay           Dernek aidatı                 21230593230CKamu Görevlisi                                    10012018
D042290467500                          000000000048.00Nurten Birlik            Dernek aidatı                 21356677760CKamu Görevlisi                                    10012018
D042290362477                          000000000048.00Oğuz Memiş Çelik         Dernek aidatı                 11119241482CKamu Görevlisi                                    10012018
D042290945555                          000000000048.00Onur Orhanalp            Dernek aidatı                 14137775274CKamu Görevlisi                                    10012018
D042860366722                          000000000048.00Ömür Şans Yıldırım       Dernek aidatı                 23029921682CKamu Görevlisi                                    10012018
D042860366722                          000000000048.00Ömür Şans Yıldırım       Dernek aidatı                 23029921682CKamu Görevlisi                                    10012018
D042290523851                          000000000048.00Ömür Uğur                Dernek aidatı                 20002692652CKamu Görevlisi                                    10012018
D042290698823                          000000000048.00Özlem Bozatlı            Dernek aidatı                 61558201974CKamu Görevlisi                                    10012018
D042290574508                          000000000048.00Rabia Karataş            Dernek aidatı                 11554139290CKamu Görevlisi                                    10012018
D042291225030                          000000000048.00Ramazan Kavak            Dernek aidatı                 35593589052CKamu Görevlisi                                    10012018
D042291225030                          000000000048.00Ramazan Kavak            Dernek aidatı                 35593589052CKamu Görevlisi                                    10012018
D066230637820                          000000000048.00Ramazan Ülger            Dernek aidatı                 19765724786CKamu Görevlisi                                    10012018
D042290246291                          000000000048.00Recep Boztemur           Dernek aidatı                 32663014230CKamu Görevlisi                                    10012018
D042290748753                          000000000048.00Rıfat Baran Tansel       Dernek aidatı                 17396301796CKamu Görevlisi                                    10012018
D042290575106                          000000000048.00Sacide Nevin Ünsal       Dernek aidatı                 12116849732CKamu Görevlisi                                    10012018
D042290227576                          000000000048.00Salih Erol               Dernek aidatı                 12550960390CKamu Görevlisi                                    10012018
D042290362583                          000000000048.00Salih Sarıkaya           Dernek aidatı                 39370079446CKamu Görevlisi                                    10012018
D042290466474                          000000000048.00Samet Bağçe              Dernek aidatı                 40432144002CKamu Görevlisi                                    10012018
D042290408997                          000000000048.00Selda Bilgin             Dernek aidatı                 35959483444CKamu Görevlisi                                    10012018
D042290484336                          000000000048.00Selda Şeker              Dernek aidatı                 70516137910CKamu Görevlisi                                    10012018
D042290471085                          000000000048.00Sema Çelik Ayvalı        Dernek aidatı                 12580021122CKamu Görevlisi                                    10012018
D042290608320                          000000000048.00Sema Çiğdem Yakar        Dernek aidatı                 25084055470CKamu Görevlisi                                    10012018
D042290606205                          000000000048.00Semra Can Kuntker        Dernek aidatı                 11788757970CKamu Görevlisi                                    10012018
D042290003668                          000000000048.00Serap Aşık               Dernek aidatı                 24233112200CKamu Görevlisi                                    10012018
D042290086768                          000000000048.00Serap Erbakan Karabayer  Dernek aidatı                 13102012796CKamu Görevlisi                                    10012018
D042290331660                          000000000048.00Serpil Delipoyraz        Dernek aidatı                 45142845126CKamu Görevlisi                                    10012018
D042291119336                          000000000048.00Sevda Yeşilyurt          Dernek aidatı                 40348236426CKamu Görevlisi                                    10012018
D042290224259                          000000000048.00Sevila Demir Şener       Dernek aidatı                 13060243638CKamu Görevlisi                                    10012018
D042290222712                          000000000048.00Sibel Er                 Dernek aidatı                 38164095488CKamu Görevlisi                                    10012018
D042290375480                          000000000048.00Suna Gül                 Dernek aidatı                 50029695770CKamu Görevlisi                                    10012018
D042290658341                          000000000048.00Şahin Oğuz               Dernek aidatı                 59218335848CKamu Görevlisi                                    10012018
D042290708076                          000000000048.00Şulenur Akman Üst        Dernek aidatı                 12881870252CKamu Görevlisi                                    10012018
D042290608347                          000000000048.00Tansel Mengüoğul Öztürk  Dernek aidatı                 10205632548CKamu Görevlisi                                    10012018
D042290570260                          000000000048.00Tekin Yılmaz             Dernek aidatı                 49354391952CKamu Görevlisi                                    10012018
D042290221477                          000000000048.00Tokay Şahin              Dernek aidatı                 46534037136CKamu Görevlisi                                    10012018
D042290236515                          000000000048.00Tunay Berkman Dik        Dernek aidatı                 12838257006CKamu Görevlisi                                    10012018
D042290226892                          000000000048.00Tuncay Aydoğdu           Dernek aidatı                 11686244596CKamu Görevlisi                                    10012018
D042290300156                          000000000048.00Tuncay Göçer             Dernek aidatı                 30350240962CKamu Görevlisi                                    10012018
D042290282708                          000000000048.00Turan Kalender           Dernek aidatı                 41593584942CKamu Görevlisi                                    10012018
D042780399263                          000000000048.00Tülay Göğen              Dernek aidatı                 58855171246CKamu Görevlisi                                    10012018
D042290184963                          000000000048.00Tülay Yıldız             Dernek aidatı                 52177617994CKamu Görevlisi                                    10012018
D042290429999                          000000000048.00Tülin Özen Ödün          Dernek aidatı                 45112139286CKamu Görevlisi                                    10012018
D042290622918                          000000000048.00Ufuk Köse                Dernek aidatı                 34568100322CKamu Görevlisi                                    10012018
D042290528775                          000000000048.00Ülker Taysi Tezduyar     Dernek aidatı                 18715034098CKamu Görevlisi                                    10012018
D042290987102                          000000000048.00Ümit Can Karadavut       Dernek aidatı                 16838892342CKamu Görevlisi                                    10012018
D042290299921                          000000000048.00Veysel Aydemir           Dernek aidatı                 18347076152CKamu Görevlisi                                    10012018
D042290402633                          000000000048.00Vildan Şahin             Dernek aidatı                 14197050502CKamu Görevlisi                                    10012018
D042290573824                          000000000048.00Yalçın Tercanlı          Dernek aidatı                 19174045786CKamu Görevlisi                                    10012018
D042290362566                          000000000048.00Yasemin Koçak            Dernek aidatı                 27046478020CKamu Görevlisi                                    10012018
D042290574985                          000000000048.00Yasemin Yalçın           Dernek aidatı                 20902405888CKamu Görevlisi                                    10012018
D042291035495                          000000000048.00Yasin Yeşil              Dernek aidatı                 15908084274CKamu Görevlisi                                    10012018
D042291035495                          000000000048.00Yasin Yeşil              Dernek aidatı                 15908084274CKamu Görevlisi                                    10012018
D042290337950                          000000000048.00Yavuz Yaman              Dernek aidatı                 55825321786CKamu Görevlisi                                    10012018
D042290121216                          000000000048.00Yılmaz Talip Özyazıcı    Dernek aidatı                 16646737088CKamu Görevlisi                                    10012018
D042290350932                          000000000048.00Yurdagül Öztürk          Dernek aidatı                 20885326262CKamu Görevlisi                                    10012018
D042290132994                          000000000048.00Zehra Kaya               Dernek aidatı                 18445763794CKamu Görevlisi                                    10012018
D042290406740                          000000000048.00Zeliha Doğruoğlu AyazoğluDernek aidatı                 10057331392CKamu Görevlisi                                    10012018
D042290951029                          000000000048.00Zeynel Akın              Dernek aidatı                 12826095856CKamu Görevlisi                                    10012018
D042290658682                          000000000048.00Zeynep İrem Sert         Dernek aidatı                 16946166144CKamu Görevlisi                                    10012018
T00193000000009264.00
